{
  "_format": "hh-sol-artifact-1",
  "contractName": "SimpleDEX",
  "sourceName": "contracts/SimpleDEX.sol",
  "abi": [
    {
      "inputs": [
        {
          "internalType": "address",
          "name": "_tokenA",
          "type": "address"
        },
        {
          "internalType": "address",
          "name": "_tokenB",
          "type": "address"
        }
      ],
      "stateMutability": "nonpayable",
      "type": "constructor"
    },
    {
      "inputs": [
        {
          "internalType": "address",
          "name": "owner",
          "type": "address"
        }
      ],
      "name": "OwnableInvalidOwner",
      "type": "error"
    },
    {
      "inputs": [
        {
          "internalType": "address",
          "name": "account",
          "type": "address"
        }
      ],
      "name": "OwnableUnauthorizedAccount",
      "type": "error"
    },
    {
      "inputs": [],
      "name": "ReentrancyGuardReentrantCall",
      "type": "error"
    },
    {
      "anonymous": false,
      "inputs": [
        {
          "indexed": true,
          "internalType": "address",
          "name": "provider",
          "type": "address"
        },
        {
          "indexed": false,
          "internalType": "uint256",
          "name": "amountA",
          "type": "uint256"
        },
        {
          "indexed": false,
          "internalType": "uint256",
          "name": "amountB",
          "type": "uint256"
        },
        {
          "indexed": false,
          "internalType": "uint256",
          "name": "liquidityMinted",
          "type": "uint256"
        }
      ],
      "name": "LiquidityAdded",
      "type": "event"
    },
    {
      "anonymous": false,
      "inputs": [
        {
          "indexed": true,
          "internalType": "address",
          "name": "provider",
          "type": "address"
        },
        {
          "indexed": false,
          "internalType": "uint256",
          "name": "amountA",
          "type": "uint256"
        },
        {
          "indexed": false,
          "internalType": "uint256",
          "name": "amountB",
          "type": "uint256"
        },
        {
          "indexed": false,
          "internalType": "uint256",
          "name": "liquidityBurned",
          "type": "uint256"
        }
      ],
      "name": "LiquidityRemoved",
      "type": "event"
    },
    {
      "anonymous": false,
      "inputs": [
        {
          "indexed": true,
          "internalType": "address",
          "name": "previousOwner",
          "type": "address"
        },
        {
          "indexed": true,
          "internalType": "address",
          "name": "newOwner",
          "type": "address"
        }
      ],
      "name": "OwnershipTransferred",
      "type": "event"
    },
    {
      "anonymous": false,
      "inputs": [
        {
          "indexed": true,
          "internalType": "address",
          "name": "user",
          "type": "address"
        },
        {
          "indexed": true,
          "internalType": "address",
          "name": "tokenIn",
          "type": "address"
        },
        {
          "indexed": false,
          "internalType": "uint256",
          "name": "amountIn",
          "type": "uint256"
        },
        {
          "indexed": false,
          "internalType": "uint256",
          "name": "amountOut",
          "type": "uint256"
        }
      ],
      "name": "Swap",
      "type": "event"
    },
    {
      "inputs": [
        {
          "internalType": "uint256",
          "name": "amountA",
          "type": "uint256"
        },
        {
          "internalType": "uint256",
          "name": "amountB",
          "type": "uint256"
        }
      ],
      "name": "addLiquidity",
      "outputs": [
        {
          "internalType": "uint256",
          "name": "liquidityMinted",
          "type": "uint256"
        }
      ],
      "stateMutability": "nonpayable",
      "type": "function"
    },
    {
      "inputs": [
        {
          "internalType": "address",
          "name": "tokenIn",
          "type": "address"
        },
        {
          "internalType": "uint256",
          "name": "amountIn",
          "type": "uint256"
        }
      ],
      "name": "getAmountOut",
      "outputs": [
        {
          "internalType": "uint256",
          "name": "amountOut",
          "type": "uint256"
        }
      ],
      "stateMutability": "view",
      "type": "function"
    },
    {
      "inputs": [
        {
          "internalType": "address",
          "name": "",
          "type": "address"
        }
      ],
      "name": "liquidity",
      "outputs": [
        {
          "internalType": "uint256",
          "name": "",
          "type": "uint256"
        }
      ],
      "stateMutability": "view",
      "type": "function"
    },
    {
      "inputs": [],
      "name": "owner",
      "outputs": [
        {
          "internalType": "address",
          "name": "",
          "type": "address"
        }
      ],
      "stateMutability": "view",
      "type": "function"
    },
    {
      "inputs": [
        {
          "internalType": "uint256",
          "name": "liquidityAmount",
          "type": "uint256"
        }
      ],
      "name": "removeLiquidity",
      "outputs": [
        {
          "internalType": "uint256",
          "name": "amountA",
          "type": "uint256"
        },
        {
          "internalType": "uint256",
          "name": "amountB",
          "type": "uint256"
        }
      ],
      "stateMutability": "nonpayable",
      "type": "function"
    },
    {
      "inputs": [],
      "name": "renounceOwnership",
      "outputs": [],
      "stateMutability": "nonpayable",
      "type": "function"
    },
    {
      "inputs": [],
      "name": "reserveA",
      "outputs": [
        {
          "internalType": "uint256",
          "name": "",
          "type": "uint256"
        }
      ],
      "stateMutability": "view",
      "type": "function"
    },
    {
      "inputs": [],
      "name": "reserveB",
      "outputs": [
        {
          "internalType": "uint256",
          "name": "",
          "type": "uint256"
        }
      ],
      "stateMutability": "view",
      "type": "function"
    },
    {
      "inputs": [
        {
          "internalType": "address",
          "name": "tokenIn",
          "type": "address"
        },
        {
          "internalType": "uint256",
          "name": "amountIn",
          "type": "uint256"
        }
      ],
      "name": "swap",
      "outputs": [
        {
          "internalType": "uint256",
          "name": "amountOut",
          "type": "uint256"
        }
      ],
      "stateMutability": "nonpayable",
      "type": "function"
    },
    {
      "inputs": [],
      "name": "tokenA",
      "outputs": [
        {
          "internalType": "contract IERC20",
          "name": "",
          "type": "address"
        }
      ],
      "stateMutability": "view",
      "type": "function"
    },
    {
      "inputs": [],
      "name": "tokenB",
      "outputs": [
        {
          "internalType": "contract IERC20",
          "name": "",
          "type": "address"
        }
      ],
      "stateMutability": "view",
      "type": "function"
    },
    {
      "inputs": [],
      "name": "totalLiquidity",
      "outputs": [
        {
          "internalType": "uint256",
          "name": "",
          "type": "uint256"
        }
      ],
      "stateMutability": "view",
      "type": "function"
    },
    {
      "inputs": [
        {
          "internalType": "address",
          "name": "newOwner",
          "type": "address"
        }
      ],
      "name": "transferOwnership",
      "outputs": [],
      "stateMutability": "nonpayable",
      "type": "function"
    }
  ],
  "bytecode": "0x60806040523480156200001157600080fd5b5060405162001f9138038062001f9183398181016040528101906200003791906200032b565b33600073ffffffffffffffffffffffffffffffffffffffff168173ffffffffffffffffffffffffffffffffffffffff1603620000ad5760006040517f1e4fbdf7000000000000000000000000000000000000000000000000000000008152600401620000a4919062000383565b60405180910390fd5b620000be81620001fd60201b60201c565b5060018081905550600073ffffffffffffffffffffffffffffffffffffffff168273ffffffffffffffffffffffffffffffffffffffff1614158015620001315750600073ffffffffffffffffffffffffffffffffffffffff168173ffffffffffffffffffffffffffffffffffffffff1614155b62000173576040517f08c379a00000000000000000000000000000000000000000000000000000000081526004016200016a9062000401565b60405180910390fd5b81600260006101000a81548173ffffffffffffffffffffffffffffffffffffffff021916908373ffffffffffffffffffffffffffffffffffffffff16021790555080600360006101000a81548173ffffffffffffffffffffffffffffffffffffffff021916908373ffffffffffffffffffffffffffffffffffffffff160217905550505062000423565b60008060009054906101000a900473ffffffffffffffffffffffffffffffffffffffff169050816000806101000a81548173ffffffffffffffffffffffffffffffffffffffff021916908373ffffffffffffffffffffffffffffffffffffffff1602179055508173ffffffffffffffffffffffffffffffffffffffff168173ffffffffffffffffffffffffffffffffffffffff167f8be0079c531659141344cd1fd0a4f28419497f9722a3daafe3b4186f6b6457e060405160405180910390a35050565b600080fd5b600073ffffffffffffffffffffffffffffffffffffffff82169050919050565b6000620002f382620002c6565b9050919050565b6200030581620002e6565b81146200031157600080fd5b50565b6000815190506200032581620002fa565b92915050565b60008060408385031215620003455762000344620002c1565b5b6000620003558582860162000314565b9250506020620003688582860162000314565b9150509250929050565b6200037d81620002e6565b82525050565b60006020820190506200039a600083018462000372565b92915050565b600082825260208201905092915050565b7f496e76616c696420746f6b656e20616464726573730000000000000000000000600082015250565b6000620003e9601583620003a0565b9150620003f682620003b1565b602082019050919050565b600060208201905081810360008301526200041c81620003da565b9050919050565b611b5e80620004336000396000f3fe608060405234801561001057600080fd5b50600436106100cf5760003560e01c80639c8f9f231161008c578063ca706bcf11610066578063ca706bcf14610205578063d004f0f714610235578063dc5fa6c514610265578063f2fde38b14610283576100cf565b80639c8f9f23146101745780639cd441da146101a5578063b8c876b1146101d5576100cf565b80630fc63d10146100d457806315770f92146100f257806319e36f3b146101105780635f64b55b1461012e578063715018a61461014c5780638da5cb5b14610156575b600080fd5b6100dc61029f565b6040516100e99190611403565b60405180910390f35b6100fa6102c5565b6040516101079190611437565b60405180910390f35b6101186102cb565b6040516101259190611437565b60405180910390f35b6101366102d1565b6040516101439190611403565b60405180910390f35b6101546102f7565b005b61015e61030b565b60405161016b9190611473565b60405180910390f35b61018e600480360381019061018991906114bf565b610334565b60405161019c9291906114ec565b60405180910390f35b6101bf60048036038101906101ba9190611515565b6106cf565b6040516101cc9190611437565b60405180910390f35b6101ef60048036038101906101ea9190611581565b610a18565b6040516101fc9190611437565b60405180910390f35b61021f600480360381019061021a91906115ae565b610a30565b60405161022c9190611437565b60405180910390f35b61024f600480360381019061024a91906115ae565b610c1c565b60405161025c9190611437565b60405180910390f35b61026d6110c8565b60405161027a9190611437565b60405180910390f35b61029d60048036038101906102989190611581565b6110ce565b005b600260009054906101000a900473ffffffffffffffffffffffffffffffffffffffff1681565b60065481565b60055481565b600360009054906101000a900473ffffffffffffffffffffffffffffffffffffffff1681565b6102ff611154565b61030960006111db565b565b60008060009054906101000a900473ffffffffffffffffffffffffffffffffffffffff16905090565b60008061033f61129f565b60008311610382576040517f08c379a00000000000000000000000000000000000000000000000000000000081526004016103799061164b565b60405180910390fd5b82600760003373ffffffffffffffffffffffffffffffffffffffff1673ffffffffffffffffffffffffffffffffffffffff168152602001908152602001600020541015610404576040517f08c379a00000000000000000000000000000000000000000000000000000000081526004016103fb906116b7565b60405180910390fd5b600654600454846104159190611706565b61041f9190611777565b9150600654600554846104329190611706565b61043c9190611777565b905060008211801561044e5750600081115b61048d576040517f08c379a0000000000000000000000000000000000000000000000000000000008152600401610484906117f4565b60405180910390fd5b82600760003373ffffffffffffffffffffffffffffffffffffffff1673ffffffffffffffffffffffffffffffffffffffff16815260200190815260200160002060008282546104dc9190611814565b9250508190555082600660008282546104f59190611814565b92505081905550816004600082825461050e9190611814565b9250508190555080600560008282546105279190611814565b92505081905550600260009054906101000a900473ffffffffffffffffffffffffffffffffffffffff1673ffffffffffffffffffffffffffffffffffffffff1663a9059cbb33846040518363ffffffff1660e01b815260040161058b929190611848565b6020604051808303816000875af11580156105aa573d6000803e3d6000fd5b505050506040513d601f19601f820116820180604052508101906105ce91906118a9565b50600360009054906101000a900473ffffffffffffffffffffffffffffffffffffffff1673ffffffffffffffffffffffffffffffffffffffff1663a9059cbb33836040518363ffffffff1660e01b815260040161062c929190611848565b6020604051808303816000875af115801561064b573d6000803e3d6000fd5b505050506040513d601f19601f8201168201806040525081019061066f91906118a9565b503373ffffffffffffffffffffffffffffffffffffffff167f1dc8bb69df2b8e91fbdcbfcf93d951b3f0000f085a95fe3f7946d6161439245d8383866040516106ba939291906118d6565b60405180910390a26106ca6112e5565b915091565b60006106d961129f565b6000831180156106e95750600082115b610728576040517f08c379a000000000000000000000000000000000000000000000000000000000815260040161071f90611959565b60405180910390fd5b600260009054906101000a900473ffffffffffffffffffffffffffffffffffffffff1673ffffffffffffffffffffffffffffffffffffffff166323b872dd3330866040518463ffffffff1660e01b815260040161078793929190611979565b6020604051808303816000875af11580156107a6573d6000803e3d6000fd5b505050506040513d601f19601f820116820180604052508101906107ca91906118a9565b50600360009054906101000a900473ffffffffffffffffffffffffffffffffffffffff1673ffffffffffffffffffffffffffffffffffffffff166323b872dd3330856040518463ffffffff1660e01b815260040161082a93929190611979565b6020604051808303816000875af1158015610849573d6000803e3d6000fd5b505050506040513d601f19601f8201168201806040525081019061086d91906118a9565b506000600654036108935761088c82846108879190611706565b6112ee565b90506108d4565b6108d1600454600654856108a79190611706565b6108b19190611777565b600554600654856108c29190611706565b6108cc9190611777565b611363565b90505b60008111610917576040517f08c379a000000000000000000000000000000000000000000000000000000000815260040161090e906119fc565b60405180910390fd5b80600760003373ffffffffffffffffffffffffffffffffffffffff1673ffffffffffffffffffffffffffffffffffffffff16815260200190815260200160002060008282546109669190611a1c565b92505081905550806006600082825461097f9190611a1c565b9250508190555082600460008282546109989190611a1c565b9250508190555081600560008282546109b19190611a1c565b925050819055503373ffffffffffffffffffffffffffffffffffffffff167f64b83944e79c3ce8d4c297411de637c3e102d064677aac0c163976ebdcd6f50e848484604051610a02939291906118d6565b60405180910390a2610a126112e5565b92915050565b60076020528060005260406000206000915090505481565b6000808211610a74576040517f08c379a0000000000000000000000000000000000000000000000000000000008152600401610a6b9061164b565b60405180910390fd5b600260009054906101000a900473ffffffffffffffffffffffffffffffffffffffff1673ffffffffffffffffffffffffffffffffffffffff168373ffffffffffffffffffffffffffffffffffffffff161480610b1d5750600360009054906101000a900473ffffffffffffffffffffffffffffffffffffffff1673ffffffffffffffffffffffffffffffffffffffff168373ffffffffffffffffffffffffffffffffffffffff16145b610b5c576040517f08c379a0000000000000000000000000000000000000000000000000000000008152600401610b5390611a9c565b60405180910390fd5b6000600260009054906101000a900473ffffffffffffffffffffffffffffffffffffffff1673ffffffffffffffffffffffffffffffffffffffff168473ffffffffffffffffffffffffffffffffffffffff1614905060008082610bc457600554600454610bcb565b6004546005545b9150915060006103e86103e587610be29190611706565b610bec9190611777565b90508083610bfa9190611a1c565b8183610c069190611706565b610c109190611777565b94505050505092915050565b6000610c2661129f565b60008211610c69576040517f08c379a0000000000000000000000000000000000000000000000000000000008152600401610c609061164b565b60405180910390fd5b600260009054906101000a900473ffffffffffffffffffffffffffffffffffffffff1673ffffffffffffffffffffffffffffffffffffffff168373ffffffffffffffffffffffffffffffffffffffff161480610d125750600360009054906101000a900473ffffffffffffffffffffffffffffffffffffffff1673ffffffffffffffffffffffffffffffffffffffff168373ffffffffffffffffffffffffffffffffffffffff16145b610d51576040517f08c379a0000000000000000000000000000000000000000000000000000000008152600401610d4890611a9c565b60405180910390fd5b6000600260009054906101000a900473ffffffffffffffffffffffffffffffffffffffff1673ffffffffffffffffffffffffffffffffffffffff168473ffffffffffffffffffffffffffffffffffffffff1614905060008060008084610e0257600360009054906101000a900473ffffffffffffffffffffffffffffffffffffffff16600260009054906101000a900473ffffffffffffffffffffffffffffffffffffffff16600554600454610e4f565b600260009054906101000a900473ffffffffffffffffffffffffffffffffffffffff16600360009054906101000a900473ffffffffffffffffffffffffffffffffffffffff166004546005545b93509350935093508373ffffffffffffffffffffffffffffffffffffffff166323b872dd33308a6040518463ffffffff1660e01b8152600401610e9493929190611979565b6020604051808303816000875af1158015610eb3573d6000803e3d6000fd5b505050506040513d601f19601f82011682018060405250810190610ed791906118a9565b5060006103e86103e589610eeb9190611706565b610ef59190611777565b90508083610f039190611a1c565b8183610f0f9190611706565b610f199190611777565b965060008711610f5e576040517f08c379a0000000000000000000000000000000000000000000000000000000008152600401610f5590611b08565b60405180910390fd5b8373ffffffffffffffffffffffffffffffffffffffff1663a9059cbb33896040518363ffffffff1660e01b8152600401610f99929190611848565b6020604051808303816000875af1158015610fb8573d6000803e3d6000fd5b505050506040513d601f19601f82011682018060405250810190610fdc91906118a9565b50851561101a578760046000828254610ff59190611a1c565b92505081905550866005600082825461100e9190611814565b9250508190555061104d565b876005600082825461102c9190611a1c565b9250508190555086600460008282546110459190611814565b925050819055505b8873ffffffffffffffffffffffffffffffffffffffff163373ffffffffffffffffffffffffffffffffffffffff167ffa2dda1cc1b86e41239702756b13effbc1a092b5c57e3ad320fbe4f3b13fe2358a8a6040516110ac9291906114ec565b60405180910390a35050505050506110c26112e5565b92915050565b60045481565b6110d6611154565b600073ffffffffffffffffffffffffffffffffffffffff168173ffffffffffffffffffffffffffffffffffffffff16036111485760006040517f1e4fbdf700000000000000000000000000000000000000000000000000000000815260040161113f9190611473565b60405180910390fd5b611151816111db565b50565b61115c61137c565b73ffffffffffffffffffffffffffffffffffffffff1661117a61030b565b73ffffffffffffffffffffffffffffffffffffffff16146111d95761119d61137c565b6040517f118cdaa70000000000000000000000000000000000000000000000000000000081526004016111d09190611473565b60405180910390fd5b565b60008060009054906101000a900473ffffffffffffffffffffffffffffffffffffffff169050816000806101000a81548173ffffffffffffffffffffffffffffffffffffffff021916908373ffffffffffffffffffffffffffffffffffffffff1602179055508173ffffffffffffffffffffffffffffffffffffffff168173ffffffffffffffffffffffffffffffffffffffff167f8be0079c531659141344cd1fd0a4f28419497f9722a3daafe3b4186f6b6457e060405160405180910390a35050565b6002600154036112db576040517f3ee5aeb500000000000000000000000000000000000000000000000000000000815260040160405180910390fd5b6002600181905550565b60018081905550565b6000808203611300576000905061135e565b600060026001846113119190611a1c565b61131b9190611777565b905060008390505b8082101561135857819050600282838661133d9190611777565b6113479190611a1c565b6113519190611777565b9150611323565b80925050505b919050565b60008183106113725781611374565b825b905092915050565b600033905090565b600073ffffffffffffffffffffffffffffffffffffffff82169050919050565b6000819050919050565b60006113c96113c46113bf84611384565b6113a4565b611384565b9050919050565b60006113db826113ae565b9050919050565b60006113ed826113d0565b9050919050565b6113fd816113e2565b82525050565b600060208201905061141860008301846113f4565b92915050565b6000819050919050565b6114318161141e565b82525050565b600060208201905061144c6000830184611428565b92915050565b600061145d82611384565b9050919050565b61146d81611452565b82525050565b60006020820190506114886000830184611464565b92915050565b600080fd5b61149c8161141e565b81146114a757600080fd5b50565b6000813590506114b981611493565b92915050565b6000602082840312156114d5576114d461148e565b5b60006114e3848285016114aa565b91505092915050565b60006040820190506115016000830185611428565b61150e6020830184611428565b9392505050565b6000806040838503121561152c5761152b61148e565b5b600061153a858286016114aa565b925050602061154b858286016114aa565b9150509250929050565b61155e81611452565b811461156957600080fd5b50565b60008135905061157b81611555565b92915050565b6000602082840312156115975761159661148e565b5b60006115a58482850161156c565b91505092915050565b600080604083850312156115c5576115c461148e565b5b60006115d38582860161156c565b92505060206115e4858286016114aa565b9150509250929050565b600082825260208201905092915050565b7f416d6f756e74206d7573742062652067726561746572207468616e2030000000600082015250565b6000611635601d836115ee565b9150611640826115ff565b602082019050919050565b6000602082019050818103600083015261166481611628565b9050919050565b7f496e73756666696369656e74206c697175696469747900000000000000000000600082015250565b60006116a16016836115ee565b91506116ac8261166b565b602082019050919050565b600060208201905081810360008301526116d081611694565b9050919050565b7f4e487b7100000000000000000000000000000000000000000000000000000000600052601160045260246000fd5b60006117118261141e565b915061171c8361141e565b925082820261172a8161141e565b91508282048414831517611741576117406116d7565b5b5092915050565b7f4e487b7100000000000000000000000000000000000000000000000000000000600052601260045260246000fd5b60006117828261141e565b915061178d8361141e565b92508261179d5761179c611748565b5b828204905092915050565b7f496e73756666696369656e74206c6971756964697479206275726e6564000000600082015250565b60006117de601d836115ee565b91506117e9826117a8565b602082019050919050565b6000602082019050818103600083015261180d816117d1565b9050919050565b600061181f8261141e565b915061182a8361141e565b9250828203905081811115611842576118416116d7565b5b92915050565b600060408201905061185d6000830185611464565b61186a6020830184611428565b9392505050565b60008115159050919050565b61188681611871565b811461189157600080fd5b50565b6000815190506118a38161187d565b92915050565b6000602082840312156118bf576118be61148e565b5b60006118cd84828501611894565b91505092915050565b60006060820190506118eb6000830186611428565b6118f86020830185611428565b6119056040830184611428565b949350505050565b7f416d6f756e7473206d7573742062652067726561746572207468616e20300000600082015250565b6000611943601e836115ee565b915061194e8261190d565b602082019050919050565b6000602082019050818103600083015261197281611936565b9050919050565b600060608201905061198e6000830186611464565b61199b6020830185611464565b6119a86040830184611428565b949350505050565b7f496e73756666696369656e74206c6971756964697479206d696e746564000000600082015250565b60006119e6601d836115ee565b91506119f1826119b0565b602082019050919050565b60006020820190508181036000830152611a15816119d9565b9050919050565b6000611a278261141e565b9150611a328361141e565b9250828201905080821115611a4a57611a496116d7565b5b92915050565b7f496e76616c696420746f6b656e00000000000000000000000000000000000000600082015250565b6000611a86600d836115ee565b9150611a9182611a50565b602082019050919050565b60006020820190508181036000830152611ab581611a79565b9050919050565b7f496e73756666696369656e74206f757470757420616d6f756e74000000000000600082015250565b6000611af2601a836115ee565b9150611afd82611abc565b602082019050919050565b60006020820190508181036000830152611b2181611ae5565b905091905056fea264697066735822122009f27dcbdb839144bd4770f4cc256b8b19e1d44ef82a91804a4f23107a247ec964736f6c63430008140033",
  "linkReferences": {},
  "deployedLinkReferences": {}
}